:100000000C942A000C9447000C94A8000C94470010
:100010000C946E010C9447000C9447000C9447001C
:100020000C9447000C9443010C9447000C94470037
:100030000C9447000C9447000C9447000C94470024
:100040000C9447000C9447000C9447000C94470014
:100050000C94470011241FBECFE5D4E0DEBFCDBF16
:1000600010E0A0E6B0E0E0EEF7E202C005900D92ED
:10007000A436B107D9F711E0A4E6B0E001C01D92A3
:10008000AC31B107E1F70E9432120C94EE130C94DC
:10009000000020E030E040EA5FE005C0FA0131975F
:1000A000F1F72F5F3F4F28173907C0F3089520E07D
:1000B00030E055E005C0452F4A95F1F72F5F3F4FDF
:1000C00028173907C0F308958AB3816E8ABB84B3B9
:1000D0008FEF84BB81B3856781BBD89A82E085BDF1
:1000E00082EE84BD89B7806489BF089513BE83E022
:1000F00083BF89B7816089BF88E782BF089582E0A6
:1001000085BD82EE84BD89B7806489BF089588E08B
:1001100085BF84E080BF8BB780688BBF13BE83E050
:1001200083BF89B7816089BF88E782BF8FEF8093E3
:1001300074008093090110920D0110920C0110922D
:10014000690010927100109270001092660008957C
:100150001F920F920FB60F9211248F939F93F894D2
:1001600080917000909171000197029720F4109295
:100170006900789481C080916600813081F081307F
:1001800020F0823009F075C023C0109268001092F0
:100190006700109215011092140181E013C0809144
:1001A000670090916800059780F0109268001092A7
:1001B0006700109215011092140110920F01109215
:1001C0000E0182E0809366004BC01092660048C02A
:1001D00080916700909168008230910539F4809198
:1001E0000E0190910F019695879509C00397A9F488
:1001F00080910E0190910F01969587959064909350
:100200000F0180930E0180911401909115010196C8
:10021000909315018093140104C088E085BF10926B
:10022000660080911401909115010B97A8F081E070
:100230008093690080910E0190910F0192958295B3
:100240008F7089279F70892790930F0180930E01EB
:1002500088E085BF109266001092680010926700D7
:1002600013BE83E083BF89B7816089BF88E782BFFF
:1002700002C01092660078949F918F910F900FBEEC
:100280000F901F9018951F920F920FB60F92112486
:100290008F939F938091670090916800019690934F
:1002A0006800809367000B9720F01092660088E04A
:1002B00085BF80910C0190910D01181619062CF440
:1002C000019790930D0180930C0188E782BF9F9165
:1002D0008F910F900FBE0F901F9018951F920F9245
:1002E0000FB60F9211242F933F938F939F93909863
:1002F00080916E0090916F00019690936F008093B3
:100300006E008F3F910520F010926F0010926E00EA
:1003100020916E0030916F00809175009091760071
:100320002817390710F4DD9A01C0DD988091160175
:10033000909117012817390710F4DF9A01C0DF9850
:1003400080917200909173002817390710F4AD9ACC
:1003500001C0AD988091EB009091EC00281739070F
:1003600010F4AF9A01C0AF9880910A0190910B01EF
:100370002817390710F4AA9A01C0AA988091100191
:10038000909111012817390710F4A89A01C0A89874
:100390008091B1009091B2002817390710F4949A17
:1003A00001C09498809177009091780028173907C0
:1003B00010F4969A01C0969880911A0190911B01B1
:1003C0002817390710F4929A01C09298909A82EEF9
:1003D00084BD9F918F913F912F910F900FBE0F90F1
:1003E0001F9018950895892B11F0109269001092B2
:1003F00071001092700010920D0110920C018FEF9D
:1004000080937400809309010895109276001092F1
:10041000750010921701109216011092730010923D
:1004200072001092EC001092EB0010920B011092EF
:100430000A0110921101109210011092B200109254
:10044000B100109278001092770010921B01109268
:100450001A01882379F0DD98DF98AD98AF98AA98B3
:10046000A898949896989298DE98AE98AC98AB9885
:10047000A99895980895A89581309105D9F56115A9
:10048000710509F0FCC01092760010927500109270
:100490001701109216011092730010927200F7C0AB
:1004A000E0911801F0911901EE0FFF1FE153FF4F8A
:1004B000808191819093760080937500109217014E
:1004C0001092160112C01092760010927500E09101
:1004D0001801F0911901EE0FFF1FE153FF4F8081CA
:1004E00091819093170180931601109273001092DE
:1004F000720008958230910509F053C017C0109220
:100500007600109275001092170110921601E0917A
:100510001801F0911901EE0FFF1FE153FF4F808189
:100520009181909373008093720008956115710515
:1005300009F0B2C01092EC001092EB0010920B0187
:1005400010920A011092110110921001A9C0E091BD
:100550001801F0911901EE0FFF1FE153FF4F808149
:1005600091819093EC008093EB0010920B0110921C
:100570000A0112C01092EC001092EB00E0911801F9
:10058000F0911901EE0FFF1FE153FF4F8081918120
:1005900090930B0180930A011092110110921001A7
:1005A00008950397C1F008951092EC001092EB00AB
:1005B00010920B0110920A01E0911801F0911901BB
:1005C000EE0FFF1FE153FF4F808191819093110146
:1005D0008093100108956115710561F41092B200C5
:1005E0001092B100109278001092770010921B01C7
:1005F00010921A016130710509F05BC0E091180199
:10060000F0911901EE0FFF1FE153FF4F808191819F
:100610009093B2008093B10010927800109277000E
:1006200012C01092B2001092B100E0911801F09146
:100630001901EE0FFF1FE153FF4F808191819093CD
:1006400078008093770010921B0110921A01089590
:100650001092B2001092B1001092780010927700C0
:10066000E0911801F0911901EE0FFF1FE153FF4FC8
:100670008081918190931B0180931A0108956130CC
:10068000710509F40DCF6230710509F41CCF633098
:10069000710509F434CF08956130710509F457CF1D
:1006A0006230710509F466CF6330710509F47CCFBF
:1006B00008956230710509F4B4CF6330710541F2D9
:1006C0000895FC01009711F4E1E0F0E040916C0026
:1006D00050916D0064B175B124B135B184B195B15B
:1006E000840F951FD901A69F9001A79F300DB69F3B
:1006F000300D1124820F931FB3E0440F551FBA959C
:10070000E1F7840F951F90936D0080936C009070BB
:100710009C01E29FC001E39F900DF29F900D112478
:100720006FEF70E00E94B213CB0108958BEC87B994
:1007300083EA86B9369A0895282FCB01622F0E944A
:10074000E11380E090E020EA3FE0F9013197F1F712
:1007500001968A309105C9F708950F931F938C0174
:1007600045960E94D913F801EE0FFF1FEB56FF4F7D
:1007700080831182808191818931910514F489E10E
:1007800090E0918380831F910F9108950F931F93A1
:100790008C0104960E94D913F801EE0FFF1FE1535C
:1007A000FF4F80831182808191818530910514F4FF
:1007B00085E090E0918380831F910F91089581E0FF
:1007C00090E00E94D913982F81508C3028F4909398
:1007D000180110921901089587E090E09093190193
:1007E0008093180187E061E070E00E949C03089507
:1007F000CF93DF9380916900209170003091710058
:10080000882309F460C12115310509F043C18091A5
:100810000E018F778093740041E050E05093710097
:100820004093700010926900833109F484C08431D0
:1008300048F48131F1F0823108F0C2C0803109F012
:10084000EBC109C08D3109F452C0853261F18531A7
:1008500009F0E2C100C120911801309119012C303A
:100860003105E4F4C90101970B9750F42F5F3F4F16
:1008700010C02091180130911901223031051CF46B
:100880008CE090E0FBC0C90102970B9738F421502F
:1008900030403093190120931801F8C0509319018A
:1008A00040931801F3C06091180170911901CB01B8
:1008B00001970C97D0F4FB01EE0FFF1FE153FF4FA0
:1008C000808191818E3191051CF485E090E001C01A
:1008D000499791838083FB01EE0FFF1FE153FF4F88
:1008E0006C5F7F4F80810E949C03A895B0C060918F
:1008F000180170911901CB0101970C97D0F4FB01FD
:10090000EE0FFF1FE153FF4F80819181863E9105DD
:1009100014F4499602C08FEF90E091838083FB012D
:10092000EE0FFF1FE153FF4F6C5F7F4F80810E94EE
:100930009C03A8958CC06091180170911901CB019E
:1009400001970C97D8F5DB01AA0FBB1FED01CB5621
:10095000DF4F28813981FD01ED54FF4F8081918166
:10096000281739075CF1FD01E351FF4F0190F08139
:10097000E02DE217F30714F12E173F0744F4A758B0
:10098000BF4F8D919C91820F931F99838883DB01C8
:10099000AA0FBB1FAB56BF4F8D919C911197E817C3
:1009A000F90714F4ED93FC93FB01EE0FFF1FEB56D8
:1009B000FF4F6B5E7F4F80810E949C03A89547C0CC
:1009C0006091180170911901CB0101970C97F0F516
:1009D000DB01AA0FBB1FFD01EB56FF4F20813181C8
:1009E000FD01ED54FF4F408151812417350774F10B
:1009F000A351BF4F8D919C91821793073CF14217F1
:100A0000530774F4FB01EE0FFF1FDF01A758BF4F20
:100A10008D919C91281B390BEB56FF4F318320831E
:100A2000FB01EE0FFF1FEB56FF4F80819181841772
:100A3000950714F451834083FB01EE0FFF1FEB5623
:100A4000FF4F6B5E7F4F80810E949C03A8958FEFC4
:100A500080937400E1C0809162008130A1F4209104
:100A6000180130911901C90101970C9728F4822FC0
:100A700061E070E00E949C038EED90E0909319017C
:100A80008093180103C00E94DF03A8958FEF809325
:100A90007400BDC02330310509F0BEC080910C0147
:100AA00090910D01892B09F0B7C086E090E09093FA
:100AB00071008093700080910E018F7780930901FF
:100AC000109269004EC02130310569F483E291E053
:100AD00090930D0180930C0182E090E0909371005F
:100AE0008093700025C02230310559F580910C01AA
:100AF00090910D01892B09F08FC0809174008F3F78
:100B000029F410927100109270000CC083E090E004
:100B1000909371008093700088E097E090930D01AE
:100B200080930C011092660010921501109214012E
:100B300013BE83E083BF89B7816089BF88E782BF26
:100B40006BC02330310581F480910C0190910D012F
:100B5000892B09F061C085E090E09093710080934B
:100B600070001092660058C0C90105970297E0F422
:100B700010926B0010926A00809174008F3FA1F078
:100B80008A3090F4893031F090E0019690936B00B8
:100B900080936A002630310551F080916A0090916F
:100BA0006B00009731F52EC02630310559F5409184
:100BB00009014F3F39F14A3028F580916A00909140
:100BC0006B009C0163E0220F331F6A95E1F7880FE9
:100BD000991F280F391F493021F0240F311D2F5F35
:100BE0003F4F30936B0020936A0080916A00909190
:100BF0006B00909319018093180180E090E00E94AF
:100C0000F30105C080E090E00E94F30105C020914F
:100C100018013091190102C020E030E0C901DF91D4
:100C2000CF910895CF93DF9381E00E94050220E0E9
:100C300030E040EA5FE0CA010197F1F7A8952F5F25
:100C40003F4F81E0243F3807B1F710926200C0EABD
:100C5000DFE0A89581E00E940502D8980E94F80381
:100C600018161906DCF4A89520E030E040EA5FE0B1
:100C7000FA013197F1F7A8952F5F3F4F283C3105D6
:100C8000B9F78E3D910521F481E090E00E94F301D7
:100C900081E080936200DF91CF910895CE010197AA
:100CA000F1F7D7CF1F93CF93DF93C0E0D0E015E0EB
:100CB00014C0A8950E94F803181619061CF421E028
:100CC00030E014C080E090E0212F2A95F1F70196E2
:100CD00026E0843A9207C1F721968091AD00909169
:100CE000AE00C817D9072CF320E030E0C901DF912E
:100CF000CF911F910895CF93DF93A895C0E0D0E0E6
:100D000081E090E061E070E00E943B0282E090E0D0
:100D100060E070E00E943B0283E090E060E070E001
:100D20000E943B020E945206181619060CF419C1C3
:100D300081E090E060E070E00E943B0282E090E0A1
:100D400061E070E00E943B0283E090E060E070E0D0
:100D50000E943B020E945206181619060CF401C1AB
:100D600081E090E060E070E00E943B0282E090E071
:100D700060E070E00E943B0283E090E061E070E0A0
:100D80000E943B020E945206181619060CF4E9C094
:100D900081E090E060E070E00E943B0282E090E041
:100DA00061E070E00E943B0283E090E060E070E070
:100DB0000E943B020E945206181619060CF4D1C07C
:100DC0002196C530D10509F09BCFC0E0D0E081E08D
:100DD00090E062E070E00E943B0282E090E060E020
:100DE00070E00E943B0283E090E060E070E00E94CF
:100DF0003B020E945206181619060CF4B2C081E09C
:100E000090E060E070E00E943B0282E090E062E0EF
:100E100070E00E943B0283E090E060E070E00E949E
:100E20003B020E945206181619060CF49AC081E083
:100E300090E060E070E00E943B0282E090E060E0C1
:100E400070E00E943B0283E090E062E070E00E946C
:100E50003B020E945206181619060CF482C081E06B
:100E600090E060E070E00E943B0282E090E062E08F
:100E700070E00E943B0283E090E060E070E00E943E
:100E80003B020E945206181619060CF46AC02196FD
:100E9000C530D10509F09BCFC0E0D0E081E090E003
:100EA00063E070E00E943B0282E090E060E070E06E
:100EB0000E943B0283E090E060E070E00E943B0211
:100EC0000E945206181619060CF44BC081E090E0FF
:100ED00060E070E00E943B0282E090E063E070E03E
:100EE0000E943B0283E090E060E070E00E943B02E1
:100EF0000E94520618161906A4F181E090E060E005
:100F000070E00E943B0282E090E060E070E00E94AE
:100F10003B0283E090E063E070E00E943B020E94AD
:100F2000520618161906ECF081E090E060E070E0DF
:100F30000E943B0282E090E063E070E00E943B028E
:100F400083E090E060E070E00E943B020E94520665
:100F50001816190634F02196C530D10509F09ECF38
:100F6000CCCEDF91CF9108951F93CF93DF93C0E054
:100F7000D0E015E014C0A8950E94F80318161906D1
:100F80001CF421E030E014C080E090E0212F2A958D
:100F9000F1F7019626E0843A9207C1F721968091F5
:100FA000AB009091AC00C817D9072CF320E030E0DB
:100FB000C901DF91CF911F910895CF93DF93A89539
:100FC000C0E0D0E083E090E060E070E00E943B028F
:100FD00081E090E062E070E00E943B020E94B40772
:100FE000181619060CF49DC081E090E060E070E0F6
:100FF0000E943B0282E090E062E070E00E943B02CF
:101000000E94B407181619060CF48BC082E090E019
:1010100060E070E00E943B0283E090E062E070E0FC
:101020000E943B020E94B407181619060CF479C0FE
:101030002196C530D10531F6C0E0D0E083E090E0E4
:1010400060E070E00E943B0281E090E063E070E0CD
:101050000E943B020E94B407181619060CF461C0E6
:1010600081E090E060E070E00E943B0282E090E06E
:1010700063E070E00E943B020E94B4071816190654
:101080000CF44FC082E090E060E070E00E943B0210
:1010900083E090E063E070E00E943B020E94B407AE
:1010A00018161906F4F12196C530D10539F6C0E0BD
:1010B000D0E083E090E060E070E00E943B0281E0DD
:1010C00090E061E070E00E943B020E94B4071816B5
:1010D00019063CF181E090E060E070E00E943B0284
:1010E00082E090E061E070E00E943B020E94B40761
:1010F00018161906B4F082E090E060E070E00E94FB
:101100003B0283E090E061E070E00E943B020E94BD
:10111000B407181619062CF02196C530D10549F6EA
:101120004ECFDF91CF9108951F93CF93DF93C0E00F
:10113000D0E015E014C0A8950E94F803181619060F
:101140001CF421E030E014C080E090E0212F2A95CB
:10115000F1F7019626E0843A9207C1F72196809133
:10116000A9009091AA00C817D9072CF320E030E01D
:10117000C901DF91CF911F910895CF93DF93A89577
:10118000C0E0D0E081E090E062E070E00E943B02CD
:1011900082E090E061E070E00E943B0283E090E03A
:1011A00061E070E00E943B020E9494081816190644
:1011B0000CF4D1C081E090E061E070E00E943B025D
:1011C00082E090E062E070E00E943B0283E090E009
:1011D00061E070E00E943B020E9494081816190614
:1011E0000CF4B9C081E090E061E070E00E943B0245
:1011F00082E090E061E070E00E943B0283E090E0DA
:1012000062E070E00E943B020E94940818161906E2
:101210000CF4A1C02196C530D10509F0B3CFC0E0D0
:10122000D0E081E090E063E070E00E943B0282E069
:1012300090E062E070E00E943B0283E090E062E0B8
:1012400070E00E943B020E949408181619060CF4E4
:1012500082C081E090E062E070E00E943B0282E0A8
:1012600090E063E070E00E943B0283E090E062E087
:1012700070E00E943B020E949408181619060CF4B4
:101280006AC081E090E062E070E00E943B0282E090
:1012900090E062E070E00E943B0283E090E063E057
:1012A00070E00E943B020E949408181619060CF484
:1012B00052C02196C530D10509F0B3CFC0E0D0E0CF
:1012C00081E090E061E070E00E943B0282E090E00B
:1012D00063E070E00E943B0283E090E063E070E036
:1012E0000E943B020E94940818161906A4F181E09E
:1012F00090E063E070E00E943B0282E090E061E0F9
:1013000070E00E943B0283E090E063E070E00E94A6
:101310003B020E94940818161906ECF081E090E058
:1013200063E070E00E943B0282E090E063E070E0E6
:101330000E943B0283E090E061E070E00E943B028B
:101340000E9494081816190634F02196C530D1056C
:1013500009F0B6CF14CFDF91CF9108951F93CF93AB
:10136000DF93C0E0D0E015E015C0A8950E94F80317
:10137000181619061CF421E030E015C0A89580E08D
:1013800090E0212F2A95F1F7019626E0843A920702
:10139000C1F721968091A7009091A800C817D9079E
:1013A00024F320E030E0C901DF91CF911F9108952F
:1013B000A89581E090E062E070E00E943B0282E04C
:1013C00090E061E070E00E943B0283E090E061E029
:1013D00070E00E943B020E94AE09181619060CF438
:1013E000BEC081E090E062E070E00E943B0282E0DB
:1013F00090E062E070E00E943B0283E090E061E0F8
:1014000070E00E943B020E94AE09181619060CF407
:10141000A6C081E090E062E070E00E943B0282E0C2
:1014200090E062E070E00E943B0283E090E062E0C6
:1014300070E00E943B020E94AE09181619060CF4D7
:101440008EC081E090E063E070E00E943B0282E0A9
:1014500090E062E070E00E943B0283E090E062E096
:1014600070E00E943B020E94AE09181619060CF4A7
:1014700076C081E090E063E070E00E943B0282E091
:1014800090E063E070E00E943B0283E090E062E065
:1014900070E00E943B020E94AE09181619060CF477
:1014A0005EC081E090E063E070E00E943B0282E079
:1014B00090E063E070E00E943B0283E090E063E034
:1014C00070E00E943B020E94AE09181619060CF447
:1014D00046C081E090E061E070E00E943B0282E063
:1014E00090E063E070E00E943B0283E090E063E004
:1014F00070E00E943B020E94AE09181619067CF1AA
:1015000081E090E061E070E00E943B0282E090E0C8
:1015100061E070E00E943B0283E090E063E070E0F5
:101520000E943B020E94AE0918161906C4F081E021
:1015300090E061E070E00E943B0282E090E061E0B8
:1015400070E00E943B0283E090E061E070E00E9466
:101550003B020E94AE09181619060CF029CF089517
:101560001F93CF93DF93C0E0D0E015E014C0A8959F
:101570000E94F803181619061CF421E030E014C08C
:1015800080E090E0212F2A95F1F7019626E0843A39
:101590009207C1F721968091A5009091A600C817E7
:1015A000D9072CF320E030E0C901DF91CF911F91E2
:1015B0000895A8950E94B00A181619060CF441C0A7
:1015C00081E090E061E070E00E943B0282E090E008
:1015D00061E070E00E943B0283E090E061E070E037
:1015E0000E943B020E94B00A1816190654F181E0CD
:1015F00090E062E070E00E943B0282E090E062E0F6
:1016000070E00E943B0283E090E062E070E00E94A4
:101610003B020E94B00A181619069CF081E090E087
:1016200063E070E00E943B0282E090E063E070E0E3
:101630000E943B0283E090E063E070E00E943B0286
:10164000B8CF08950F931F93CF93DF93C0E0D0E0FE
:1016500000EA1FE0A8950E94F803181619061CF46A
:1016600021E030E00AC0A895C8010197F1F7219662
:10167000C830D10579F720E030E0C901DF91CF9182
:101680001F910F910895CF92DF92EF92FF920F93E7
:101690001F93CF93DF936C018B01EE24FF24C0E0F6
:1016A000D0E05BC00E94220B181619061CF421E042
:1016B00030E05DC0E0911801F0911901EE0FFF1FBD
:1016C000EB56FF4F80819181E091DD00F091DE00CB
:1016D000E817F90724F16091A3007091A400CF01ED
:1016E0000E94C6139B0140E050E015C0EC17FD07B7
:1016F00020F0D601CD93DC9321960115110549F018
:10170000D8018D919C911197009719F001978D93B5
:101710009C934F5F5F4F4217530740F31BC0BF01BD
:101720000E94C613C7010E94B213892B99F4EC17CB
:10173000FD0720F0F601D183C08321960115110524
:1017400049F0D8018D919C911197009719F001975C
:101750008D939C930894E11CF11C8091A3009091BF
:10176000A400E816F90608F49DCF20E030E0C90196
:10177000DF91CF911F910F91FF90EF90DF90CF906D
:10178000089581E090E0A895892B31F085E790E0FD
:1017900060E070E00E94430B8BEE90E065E770E044
:1017A0000E94430B181619060CF472C010927600B2
:1017B0001092750081EB90E06BEE70E00E94430B9D
:1017C000181619060CF464C01092EC001092EB008D
:1017D00086E191E061EB70E00E94430B1816190658
:1017E0000CF456C01092B2001092B1008AE091E061
:1017F00066E171E00E94430B181619060CF448C00C
:10180000109217011092160187E790E06AE071E0EC
:101810000E94430B18161906DCF110920B0110926E
:101820000A0182E790E067E770E00E94430B181618
:10183000190674F1109278001092770080E191E01F
:1018400062E770E00E94430B181619060CF1109223
:101850007300109272008AE191E060E171E00E94F1
:10186000430B18161906A4F01092110110921001E2
:1018700085E790E06AE171E00E94430B18161906B3
:101880003CF010921B0110921A0180E090E07BCF97
:1018900008951F93CF93DF93C0E0D0E015E014C00C
:1018A000A8950E94F803181619061CF421E030E0F0
:1018B00014C0A89580E090E0212F2A95F1F70196B9
:1018C00080359105C9F721968091A1009091A200E1
:1018D000C817D9072CF320E030E0C901DF91CF9180
:1018E0001F9108952F923F924F925F926F927F9235
:1018F0008F929F92AF92BF92CF92DF92EF92FF9220
:101900000F931F93CF93DF93EFE72E2E312C70E3CD
:10191000472E512C60E9662E712C50E1852E912CBA
:1019200040E3A42EB12C30EEC32ED12C20EFE22EBA
:10193000F12C03E010E0C0E7D0E0A895809175009D
:10194000909176002816390628F401979093760036
:1019500080937500809175009091760082159305B3
:1019600028F401969093760080937500809175001D
:10197000909176008215930539F48091DB00909167
:10198000DC000E9461031C018091160190911701F7
:101990004816590628F40197909317018093160171
:1019A00080911601909117018415950528F40196F0
:1019B0009093170180931601809116019091170161
:1019C0008415950539F48091DB009091DC000E942C
:1019D00061032C0180917200909173006816790662
:1019E00028F40197909373008093720080917200A5
:1019F000909173008615970528F4019690937300D3
:101A00008093720080917200909173008615970503
:101A100039F48091DB009091DC000E9461033C016D
:101A20008091EB009091EC008816990628F40197BC
:101A30009093EC008093EB008091EB009091EC0090
:101A40008815990528F401969093EC008093EB009B
:101A50008091EB009091EC008815990539F4809104
:101A6000DB009091DC000E9461034C0180910A012F
:101A700090910B01A816B90628F4019790930B01D9
:101A800080930A0180910A0190910B018A159B05B0
:101A900028F4019690930B0180930A0180910A012A
:101AA00090910B018A159B0539F48091DB00909190
:101AB000DC000E9461035C01809110019091110192
:101AC000C816D90628F4019790931101809310014C
:101AD00080911001909111018C159D0528F40196BB
:101AE0009093110180931001809110019091110148
:101AF0008C159D0539F48091DB009091DC000E94EB
:101B000061036C018091B1009091B200E816F90672
:101B100028F401979093B2008093B1008091B100B6
:101B20009091B2008E159F0528F401969093B20013
:101B30008093B1008091B1009091B2008E159F0505
:101B400039F48091DB009091DC000E9461037C01FC
:101B500080917700909178000817190728F4019771
:101B6000909378008093770080917700909178002F
:101B70008017910728F4019690937800809377005E
:101B800080917700909178008017910739F48091C7
:101B9000DB009091DC000E9461038C0180911A01AE
:101BA00090911B01C817D90728F4019790931B0146
:101BB00080931A0180911A0190911B018C179D0747
:101BC00028F4019690931B0180931A0180911A01C9
:101BD00090911B018C179D0739F48091DB00909147
:101BE000DC000E946103EC010E94490C18161906E2
:101BF0000CF0A3CEDF91CF911F910F91FF90EF904A
:101C0000DF90CF90BF90AF909F908F907F906F901C
:101C10005F904F903F902F9008951F93CF93DF9345
:101C2000C0E0D0E015E014C0A8950E94F803181693
:101C300019061CF421E030E014C0A89580E090E083
:101C4000212F2A95F1F7019680359105C9F7219644
:101C500080919F009091A000C817D9072CF320E035
:101C600030E0C901DF91CF911F910895EF92FF926B
:101C70000F931F93CF93DF93EE24FF2400E010E037
:101C8000C0E0D0E0A89587E090E00E946103482F73
:101C900080FF19C020917500309176002E0D3F1DF8
:101CA00030937600209375008091D9009091DA00EE
:101CB0008217930718F4EE24EA94FE2C232B19F4D0
:101CC000F1E0EF2EF12C41FF17C020911601309169
:101CD0001701200F311F30931701209316018091B7
:101CE000D9009091DA008217930710F40FEF1FEFDD
:101CF000232B11F401E010E042FF17C02091720085
:101D0000309173002C0F3D1F3093730020937200AD
:101D10008091D9009091DA008217930710F4CFEFE9
:101D2000DFEF232B11F4C1E0D0E04091750050911A
:101D300076005093EC004093EB0020911601309117
:101D4000170130930B0120930A018091720090914A
:101D5000730090931101809310015093B20040934F
:101D6000B100309378002093770090931B0180930B
:101D70001A010E940D0E181619060CF083CFDF9180
:101D8000CF911F910F91FF90EF9008951F93CF93E4
:101D9000DF93C0E0D0E015E014C0A8950E94F803DE
:101DA000181619061CF421E030E014C0A89580E054
:101DB00090E0212F2A95F1F7019680359105C9F71A
:101DC000219680919D0090919E00C817D9072CF311
:101DD00020E030E0C901DF91CF911F910895CF92AB
:101DE000DF92EF92FF920F931F93CF93DF9301E067
:101DF00010E0C1E0D0E081E0E82EF12CB9E1CB2E7B
:101E0000D12CA8958091D7009091D800499724F4BF
:101E1000D092D800C092D7004091750050917600C2
:101E2000400F511F50937600409375002091D700CA
:101E30003091D8002417350710F40FEF1FEF41152C
:101E4000510519F400E010E003C001151105A1F4DB
:101E500080911601909117018C0F9D1F909317018F
:101E6000809316012817390710F4CFEFDFEF892B85
:101E700019F4C0E0D0E002C02097A1F48091720074
:101E8000909173008E0D9F1D90937300809372004C
:101E90002817390718F4EE24EA94FE2C892B11F444
:101EA000EE24FF240115110561F4209751F4E1148B
:101EB000F10439F401E010E0C1E0D0E0A1E0EA2E45
:101EC000F12CA8955093EC004093EB002091160163
:101ED0003091170130930B0120930A018091720019
:101EE0009091730090931101809310015093B20070
:101EF0004093B100309378002093770090931B01BA
:101F000080931A010E94C60E181619060CF079CF9C
:101F1000DF91CF911F910F91FF90EF90DF90CF90C5
:101F200008951F93CF93DF93C0E0D0E015E013C076
:101F3000A8950E94F803181619061CF421E030E059
:101F400013C080E090E0212F2A95F1F701968035AB
:101F50009105C9F7219680919B0090919C00C8172C
:101F6000D90734F320E030E0C901DF91CF911F9110
:101F70000895EF92FF920F931F93CF93DF939FE704
:101F8000E92EF12C00E310E0C0E9D0E0A8958091A3
:101F9000750090917600E816F90638F4009729F05C
:101FA0000197909376008093750020917500309191
:101FB00076002E153F0568F48091D5009091D600EB
:101FC0002817390730F42F5F3F4F30937600209366
:101FD000750080917500909176008E159F0539F4FB
:101FE0008091D5009091D6000E9461037C01809180
:101FF0001601909117010817190738F4009729F076
:10200000019790931701809316012091160130914A
:1020100017012017310768F48091D5009091D60000
:102020002817390730F42F5F3F4F30931701209363
:10203000160180911601909117018017910739F4CC
:102040008091D5009091D6000E9461038C0180910F
:10205000720090917300C817D90738F4009729F0DF
:1020600001979093730080937200209172003091D9
:1020700073002C173D0768F48091D5009091D6002D
:102080002817390730F42F5F3F4F309373002093A8
:10209000720080917200909173008C179D0739F443
:1020A0008091D5009091D6000E946103EC0140918F
:1020B0007500509176005093EC004093EB00209116
:1020C00016013091170130930B0120930A01809182
:1020D00072009091730090931101809310015093BE
:1020E000B2004093B1003093780020937700909332
:1020F0001B0180931A010E94910F181619060CF00B
:1021000045CFDF91CF911F910F91FF90EF900895F0
:102110001F93CF93DF93C0E0D0E015E013C0A895E4
:102120000E94F803181619061CF421E030E013C0D1
:1021300080E090E0212F2A95F1F7019680359105F6
:10214000C9F721968091990090919A00C817D907F4
:1021500034F320E030E0C901DF91CF911F91089561
:10216000EF92FF920F931F93CF93DF9321E0E22E24
:10217000F12C04E110E0A895E114F10449F18091FB
:10218000D3009091D400449724F41093D40000938A
:10219000D300CAE0D0E013C00E94881018161906B8
:1021A0000CF4EAC0C0937500D0937600C093EB00A6
:1021B000D093EC00C093B100D093B20021968091EF
:1021C000D3009091D400C817D90734F3EE24FF242C
:1021D0008091D3009091D400449724F41093D400BC
:1021E0000093D300CAE0D0E013C00E9488101816F4
:1021F00019060CF4C1C0C0931601D0931701C09307
:102200000A01D0930B01C0937700D09378002196F8
:102210008091D3009091D400C817D90734F3449724
:1022200024F41093D4000093D300C091D300D09134
:10223000D40013C00E948810181619060CF49CC014
:10224000C0937500D0937600C093EB00D093EC0060
:10225000C093B100D093B2002197CA30D10551F795
:102260008091D3009091D4004497C4F41093D4008B
:102270000093D30013C00E948810181619060CF49E
:102280007BC0C0937200D0937300C0931001D093B1
:102290001101C0931A01D0931B0121968091D300A4
:1022A0009091D400C817D90734F3449724F41093BD
:1022B000D4000093D300C091D300D091D40013C0B8
:1022C0000E948810181619060CF456C0C093160107
:1022D000D0931701C0930A01D0930B01C0937700EC
:1022E000D09378002197CA30D10551F78091D3005F
:1022F0009091D4004497BCF41093D4000093D30081
:1023000012C00E94881018161906B4F1C093750007
:10231000D0937600C093EB00D093EC00C093B10053
:10232000D093B20021968091D3009091D400C81729
:10233000D9073CF3449724F41093D4000093D300BE
:10234000C091D300D091D40012C00E9488101816FA
:10235000190694F0C0937200D0937300C0931001DB
:10236000D0931101C0931A01D0931B012197CA3059
:10237000D10509F400CFE9CFDF91CF911F910F91E3
:10238000FF90EF9008951F93CF93DF93C0E0D0E0CC
:1023900015E014C0A8950E94F803181619061CF43D
:1023A00021E030E014C080E090E0212F2A95F1F781
:1023B000019629E0843C9207C1F72196809197000D
:1023C00090919800C817D9072CF320E030E0C9019C
:1023D000DF91CF911F910895A8958091D1009091A0
:1023E000D2000E94610390937600809375008091E3
:1023F000D1009091D2000E946103909317018093C5
:1024000016018091D1009091D2000E9461039093B7
:102410007300809372004091750050917600509344
:10242000EC004093EB00209116013091170130939E
:102430000B0120930A019093110180931001509396
:10244000B2004093B10030937800209377009093CE
:102450001B0180931A010E94C311181619060CF073
:10246000BBCF08950F931F93CF93DF93A8958FE071
:1024700081BD49E150E05093B6004093B5002AEF8A
:1024800030E03093F0002093EF0066E170E070934D
:102490007C0060937B005093B8004093B70030936A
:1024A000F2002093F10070937E0060937D005093C2
:1024B000BA004093B9003093F4002093F300709376
:1024C000800060937F005093BC004093BB0030932A
:1024D000F6002093F5007093820060938100509382
:1024E000BE004093BD003093F8002093F700709336
:1024F0008400609383005093C0004093BF003093EA
:10250000FA002093F9007093860060938500509341
:10251000C2004093C1003093FC002093FB007093F5
:102520008800609387005093C4004093C3003093A9
:10253000FE002093FD0087E190E090938A00809355
:1025400089005093C6004093C5003093000120934A
:10255000FF0070938C0060938B005093C8004093F1
:10256000C700309302012093010170938E006093A5
:102570008D005093CA004093C9003093040120930A
:1025800003017093900060938F005093CC004093B0
:10259000CB00309306012093050170939200609365
:1025A000910081E0809362000E94DF038091180116
:1025B000909119019093130180931201C1E0D0E032
:1025C000CE010E94C603CE010E94AD032196CD30FC
:1025D000D105B1F71BEC03EAC0EADFE0F89411BAC9
:1025E0000E9487000E94640017B906B9369A81E0FC
:1025F00090E00E94F3017894909AA89580E090E092
:10260000FE013197F1F70196883C9105C9F7A8952D
:1026100080E090E0FE013197F1F70196883C91054A
:10262000C9F781E090E00E94F301A895A895CE013A
:102630000197F1F70E94F8032091180130911901D8
:10264000C90101970C9708F4D89A2730310509F48D
:1026500041C028303105ACF42330310579F1243004
:10266000310544F42130310519F12230310509F0EA
:1026700045C021C02530310539F1263031053CF502
:1026800020C02A30310579F12B3031053CF4283057
:10269000310519F12930310589F522C02C30310579
:1026A00041F12C30310514F12E3D310539F524C0AE
:1026B0000E94EC1123C00E94B01020C00E94B90FEC
:1026C0001DC00E94EF0E1AC00E94360E17C00E9455
:1026D000720C14C00E94C10B11C00E94D90A0EC016
:1026E0000E94D8090BC00E94BD0808C00E94DD07E7
:1026F00005C00E947B0602C00E941206809118014C
:102700009091190101970C97C8F480E00E9405028E
:1027100020911801309119018091120190911301BB
:102720002817390709F45ACF309313012093120167
:10273000822F61E070E00E949C0350CF80E00E94F5
:10274000050280911801909119018E3D910541F08B
:1027500080911201909113019093190180931801B7
:10276000A89564CFAA1BBB1B51E107C0AA1FBB1FC2
:10277000A617B70710F0A61BB70B881F991F5A950D
:10278000A9F780959095BC01CD01089597FB092E7E
:1027900007260AD077FD04D0E5DF06D000201AF422
:1027A000709561957F4F0895F6F7909581959F4FAD
:1027B0000895E199FECF9FBB8EBBE09A99278DB318
:1027C0000895262FE199FECF9FBB8EBB2DBB0FB680
:1027D000F894E29AE19A0FBE01960895F894FFCF1B
:0427E00001000100F3
:00000001FF
